{
  "_format": "hh-sol-artifact-1",
  "contractName": "Colors",
  "sourceName": "contracts/Colors.sol",
  "abi": [
    {
      "inputs": [],
      "stateMutability": "payable",
      "type": "constructor"
    },
    {
      "inputs": [
        {
          "internalType": "address",
          "name": "sender",
          "type": "address"
        },
        {
          "internalType": "uint256",
          "name": "tokenId",
          "type": "uint256"
        },
        {
          "internalType": "address",
          "name": "owner",
          "type": "address"
        }
      ],
      "name": "ERC721IncorrectOwner",
      "type": "error"
    },
    {
      "inputs": [
        {
          "internalType": "address",
          "name": "operator",
          "type": "address"
        },
        {
          "internalType": "uint256",
          "name": "tokenId",
          "type": "uint256"
        }
      ],
      "name": "ERC721InsufficientApproval",
      "type": "error"
    },
    {
      "inputs": [
        {
          "internalType": "address",
          "name": "approver",
          "type": "address"
        }
      ],
      "name": "ERC721InvalidApprover",
      "type": "error"
    },
    {
      "inputs": [
        {
          "internalType": "address",
          "name": "operator",
          "type": "address"
        }
      ],
      "name": "ERC721InvalidOperator",
      "type": "error"
    },
    {
      "inputs": [
        {
          "internalType": "address",
          "name": "owner",
          "type": "address"
        }
      ],
      "name": "ERC721InvalidOwner",
      "type": "error"
    },
    {
      "inputs": [
        {
          "internalType": "address",
          "name": "receiver",
          "type": "address"
        }
      ],
      "name": "ERC721InvalidReceiver",
      "type": "error"
    },
    {
      "inputs": [
        {
          "internalType": "address",
          "name": "sender",
          "type": "address"
        }
      ],
      "name": "ERC721InvalidSender",
      "type": "error"
    },
    {
      "inputs": [
        {
          "internalType": "uint256",
          "name": "tokenId",
          "type": "uint256"
        }
      ],
      "name": "ERC721NonexistentToken",
      "type": "error"
    },
    {
      "inputs": [
        {
          "internalType": "address",
          "name": "owner",
          "type": "address"
        }
      ],
      "name": "OwnableInvalidOwner",
      "type": "error"
    },
    {
      "inputs": [
        {
          "internalType": "address",
          "name": "account",
          "type": "address"
        }
      ],
      "name": "OwnableUnauthorizedAccount",
      "type": "error"
    },
    {
      "anonymous": false,
      "inputs": [
        {
          "indexed": true,
          "internalType": "address",
          "name": "owner",
          "type": "address"
        },
        {
          "indexed": true,
          "internalType": "address",
          "name": "approved",
          "type": "address"
        },
        {
          "indexed": true,
          "internalType": "uint256",
          "name": "tokenId",
          "type": "uint256"
        }
      ],
      "name": "Approval",
      "type": "event"
    },
    {
      "anonymous": false,
      "inputs": [
        {
          "indexed": true,
          "internalType": "address",
          "name": "owner",
          "type": "address"
        },
        {
          "indexed": true,
          "internalType": "address",
          "name": "operator",
          "type": "address"
        },
        {
          "indexed": false,
          "internalType": "bool",
          "name": "approved",
          "type": "bool"
        }
      ],
      "name": "ApprovalForAll",
      "type": "event"
    },
    {
      "anonymous": false,
      "inputs": [
        {
          "indexed": true,
          "internalType": "address",
          "name": "previousOwner",
          "type": "address"
        },
        {
          "indexed": true,
          "internalType": "address",
          "name": "newOwner",
          "type": "address"
        }
      ],
      "name": "OwnershipTransferred",
      "type": "event"
    },
    {
      "anonymous": false,
      "inputs": [
        {
          "indexed": true,
          "internalType": "address",
          "name": "from",
          "type": "address"
        },
        {
          "indexed": true,
          "internalType": "address",
          "name": "to",
          "type": "address"
        },
        {
          "indexed": true,
          "internalType": "uint256",
          "name": "tokenId",
          "type": "uint256"
        }
      ],
      "name": "Transfer",
      "type": "event"
    },
    {
      "inputs": [
        {
          "internalType": "address",
          "name": "to",
          "type": "address"
        },
        {
          "internalType": "uint256",
          "name": "tokenId",
          "type": "uint256"
        }
      ],
      "name": "approve",
      "outputs": [],
      "stateMutability": "nonpayable",
      "type": "function"
    },
    {
      "inputs": [
        {
          "internalType": "address",
          "name": "owner",
          "type": "address"
        }
      ],
      "name": "balanceOf",
      "outputs": [
        {
          "internalType": "uint256",
          "name": "",
          "type": "uint256"
        }
      ],
      "stateMutability": "view",
      "type": "function"
    },
    {
      "inputs": [
        {
          "internalType": "uint256",
          "name": "tokenId",
          "type": "uint256"
        }
      ],
      "name": "getApproved",
      "outputs": [
        {
          "internalType": "address",
          "name": "",
          "type": "address"
        }
      ],
      "stateMutability": "view",
      "type": "function"
    },
    {
      "inputs": [
        {
          "internalType": "address",
          "name": "owner",
          "type": "address"
        },
        {
          "internalType": "address",
          "name": "operator",
          "type": "address"
        }
      ],
      "name": "isApprovedForAll",
      "outputs": [
        {
          "internalType": "bool",
          "name": "",
          "type": "bool"
        }
      ],
      "stateMutability": "view",
      "type": "function"
    },
    {
      "inputs": [],
      "name": "isPublicMintEnabled",
      "outputs": [
        {
          "internalType": "bool",
          "name": "",
          "type": "bool"
        }
      ],
      "stateMutability": "view",
      "type": "function"
    },
    {
      "inputs": [],
      "name": "maxPerWallet",
      "outputs": [
        {
          "internalType": "uint256",
          "name": "",
          "type": "uint256"
        }
      ],
      "stateMutability": "view",
      "type": "function"
    },
    {
      "inputs": [],
      "name": "maxSupply",
      "outputs": [
        {
          "internalType": "uint256",
          "name": "",
          "type": "uint256"
        }
      ],
      "stateMutability": "view",
      "type": "function"
    },
    {
      "inputs": [
        {
          "internalType": "uint256",
          "name": "quantity_",
          "type": "uint256"
        }
      ],
      "name": "mint",
      "outputs": [],
      "stateMutability": "payable",
      "type": "function"
    },
    {
      "inputs": [],
      "name": "mintPrice",
      "outputs": [
        {
          "internalType": "uint256",
          "name": "",
          "type": "uint256"
        }
      ],
      "stateMutability": "view",
      "type": "function"
    },
    {
      "inputs": [],
      "name": "name",
      "outputs": [
        {
          "internalType": "string",
          "name": "",
          "type": "string"
        }
      ],
      "stateMutability": "view",
      "type": "function"
    },
    {
      "inputs": [],
      "name": "owner",
      "outputs": [
        {
          "internalType": "address",
          "name": "",
          "type": "address"
        }
      ],
      "stateMutability": "view",
      "type": "function"
    },
    {
      "inputs": [
        {
          "internalType": "uint256",
          "name": "tokenId",
          "type": "uint256"
        }
      ],
      "name": "ownerOf",
      "outputs": [
        {
          "internalType": "address",
          "name": "",
          "type": "address"
        }
      ],
      "stateMutability": "view",
      "type": "function"
    },
    {
      "inputs": [],
      "name": "renounceOwnership",
      "outputs": [],
      "stateMutability": "nonpayable",
      "type": "function"
    },
    {
      "inputs": [
        {
          "internalType": "address",
          "name": "from",
          "type": "address"
        },
        {
          "internalType": "address",
          "name": "to",
          "type": "address"
        },
        {
          "internalType": "uint256",
          "name": "tokenId",
          "type": "uint256"
        }
      ],
      "name": "safeTransferFrom",
      "outputs": [],
      "stateMutability": "nonpayable",
      "type": "function"
    },
    {
      "inputs": [
        {
          "internalType": "address",
          "name": "from",
          "type": "address"
        },
        {
          "internalType": "address",
          "name": "to",
          "type": "address"
        },
        {
          "internalType": "uint256",
          "name": "tokenId",
          "type": "uint256"
        },
        {
          "internalType": "bytes",
          "name": "data",
          "type": "bytes"
        }
      ],
      "name": "safeTransferFrom",
      "outputs": [],
      "stateMutability": "nonpayable",
      "type": "function"
    },
    {
      "inputs": [
        {
          "internalType": "address",
          "name": "operator",
          "type": "address"
        },
        {
          "internalType": "bool",
          "name": "approved",
          "type": "bool"
        }
      ],
      "name": "setApprovalForAll",
      "outputs": [],
      "stateMutability": "nonpayable",
      "type": "function"
    },
    {
      "inputs": [
        {
          "internalType": "string",
          "name": "baseTokenUri_",
          "type": "string"
        }
      ],
      "name": "setBaseTokenUri",
      "outputs": [],
      "stateMutability": "nonpayable",
      "type": "function"
    },
    {
      "inputs": [
        {
          "internalType": "bool",
          "name": "isPublicMintEnabled_",
          "type": "bool"
        }
      ],
      "name": "setIsPublicMintEnabled",
      "outputs": [],
      "stateMutability": "nonpayable",
      "type": "function"
    },
    {
      "inputs": [
        {
          "internalType": "bytes4",
          "name": "interfaceId",
          "type": "bytes4"
        }
      ],
      "name": "supportsInterface",
      "outputs": [
        {
          "internalType": "bool",
          "name": "",
          "type": "bool"
        }
      ],
      "stateMutability": "view",
      "type": "function"
    },
    {
      "inputs": [],
      "name": "symbol",
      "outputs": [
        {
          "internalType": "string",
          "name": "",
          "type": "string"
        }
      ],
      "stateMutability": "view",
      "type": "function"
    },
    {
      "inputs": [
        {
          "internalType": "uint256",
          "name": "tokenId",
          "type": "uint256"
        }
      ],
      "name": "tokenURI",
      "outputs": [
        {
          "internalType": "string",
          "name": "",
          "type": "string"
        }
      ],
      "stateMutability": "view",
      "type": "function"
    },
    {
      "inputs": [],
      "name": "totalSupply",
      "outputs": [
        {
          "internalType": "uint256",
          "name": "",
          "type": "uint256"
        }
      ],
      "stateMutability": "view",
      "type": "function"
    },
    {
      "inputs": [
        {
          "internalType": "address",
          "name": "from",
          "type": "address"
        },
        {
          "internalType": "address",
          "name": "to",
          "type": "address"
        },
        {
          "internalType": "uint256",
          "name": "tokenId",
          "type": "uint256"
        }
      ],
      "name": "transferFrom",
      "outputs": [],
      "stateMutability": "nonpayable",
      "type": "function"
    },
    {
      "inputs": [
        {
          "internalType": "address",
          "name": "newOwner",
          "type": "address"
        }
      ],
      "name": "transferOwnership",
      "outputs": [],
      "stateMutability": "nonpayable",
      "type": "function"
    },
    {
      "inputs": [
        {
          "internalType": "address",
          "name": "",
          "type": "address"
        }
      ],
      "name": "walletMints",
      "outputs": [
        {
          "internalType": "uint256",
          "name": "",
          "type": "uint256"
        }
      ],
      "stateMutability": "view",
      "type": "function"
    },
    {
      "inputs": [],
      "name": "withdraw",
      "outputs": [],
      "stateMutability": "nonpayable",
      "type": "function"
    }
  ],
  "bytecode": "0x6080604052336040518060400160405280600681526020017f436f6c6f727300000000000000000000000000000000000000000000000000008152506040518060400160405280600281526020017f435200000000000000000000000000000000000000000000000000000000000081525081600090816200008291906200048b565b5080600190816200009491906200048b565b505050600073ffffffffffffffffffffffffffffffffffffffff168173ffffffffffffffffffffffffffffffffffffffff16036200010c5760006040517f1e4fbdf7000000000000000000000000000000000000000000000000000000008152600401620001039190620005b7565b60405180910390fd5b6200011d816200014b60201b60201c565b5066470de4df82000060078190555060006008819055506103e86009819055506003600a81905550620005d4565b6000600660009054906101000a900473ffffffffffffffffffffffffffffffffffffffff16905081600660006101000a81548173ffffffffffffffffffffffffffffffffffffffff021916908373ffffffffffffffffffffffffffffffffffffffff1602179055508173ffffffffffffffffffffffffffffffffffffffff168173ffffffffffffffffffffffffffffffffffffffff167f8be0079c531659141344cd1fd0a4f28419497f9722a3daafe3b4186f6b6457e060405160405180910390a35050565b600081519050919050565b7f4e487b7100000000000000000000000000000000000000000000000000000000600052604160045260246000fd5b7f4e487b7100000000000000000000000000000000000000000000000000000000600052602260045260246000fd5b600060028204905060018216806200029357607f821691505b602082108103620002a957620002a86200024b565b5b50919050565b60008190508160005260206000209050919050565b60006020601f8301049050919050565b600082821b905092915050565b600060088302620003137fffffffffffffffffffffffffffffffffffffffffffffffffffffffffffffffff82620002d4565b6200031f8683620002d4565b95508019841693508086168417925050509392505050565b6000819050919050565b6000819050919050565b60006200036c62000366620003608462000337565b62000341565b62000337565b9050919050565b6000819050919050565b62000388836200034b565b620003a0620003978262000373565b848454620002e1565b825550505050565b600090565b620003b7620003a8565b620003c48184846200037d565b505050565b5b81811015620003ec57620003e0600082620003ad565b600181019050620003ca565b5050565b601f8211156200043b576200040581620002af565b6200041084620002c4565b8101602085101562000420578190505b620004386200042f85620002c4565b830182620003c9565b50505b505050565b600082821c905092915050565b6000620004606000198460080262000440565b1980831691505092915050565b60006200047b83836200044d565b9150826002028217905092915050565b620004968262000211565b67ffffffffffffffff811115620004b257620004b16200021c565b5b620004be82546200027a565b620004cb828285620003f0565b600060209050601f831160018114620005035760008415620004ee578287015190505b620004fa85826200046d565b8655506200056a565b601f1984166200051386620002af565b60005b828110156200053d5784890151825560018201915060208501945060208101905062000516565b868310156200055d578489015162000559601f8916826200044d565b8355505b6001600288020188555050505b505050505050565b600073ffffffffffffffffffffffffffffffffffffffff82169050919050565b60006200059f8262000572565b9050919050565b620005b18162000592565b82525050565b6000602082019050620005ce6000830184620005a6565b92915050565b612e9680620005e46000396000f3fe6080604052600436106101815760003560e01c806370a08231116100d1578063a22cb4651161008a578063d5abeb0111610064578063d5abeb011461054d578063e985e9c514610578578063f0293fd3146105b5578063f2fde38b146105f257610181565b8063a22cb465146104be578063b88d4fde146104e7578063c87b56dd1461051057610181565b806370a08231146103cf578063715018a61461040c5780638da5cb5b1461042357806395652cfa1461044e57806395d89b4114610477578063a0712d68146104a257610181565b80632373ac221161013e57806342842e0e1161011857806342842e0e14610313578063453c23101461033c5780636352211e146103675780636817c76c146103a457610181565b80632373ac22146102aa57806323b872dd146102d35780633ccfd60b146102fc57610181565b80630116bc2d1461018657806301ffc9a7146101b157806306fdde03146101ee578063081812fc14610219578063095ea7b31461025657806318160ddd1461027f575b600080fd5b34801561019257600080fd5b5061019b61061b565b6040516101a89190611e73565b60405180910390f35b3480156101bd57600080fd5b506101d860048036038101906101d39190611efa565b61062e565b6040516101e59190611e73565b60405180910390f35b3480156101fa57600080fd5b50610203610710565b6040516102109190611fb7565b60405180910390f35b34801561022557600080fd5b50610240600480360381019061023b919061200f565b6107a2565b60405161024d919061207d565b60405180910390f35b34801561026257600080fd5b5061027d600480360381019061027891906120c4565b6107be565b005b34801561028b57600080fd5b506102946107d4565b6040516102a19190612113565b60405180910390f35b3480156102b657600080fd5b506102d160048036038101906102cc919061215a565b6107da565b005b3480156102df57600080fd5b506102fa60048036038101906102f59190612187565b6107ff565b005b34801561030857600080fd5b50610311610901565b005b34801561031f57600080fd5b5061033a60048036038101906103359190612187565b6109da565b005b34801561034857600080fd5b506103516109fa565b60405161035e9190612113565b60405180910390f35b34801561037357600080fd5b5061038e6004803603810190610389919061200f565b610a00565b60405161039b919061207d565b60405180910390f35b3480156103b057600080fd5b506103b9610a12565b6040516103c69190612113565b60405180910390f35b3480156103db57600080fd5b506103f660048036038101906103f191906121da565b610a18565b6040516104039190612113565b60405180910390f35b34801561041857600080fd5b50610421610ad2565b005b34801561042f57600080fd5b50610438610ae6565b604051610445919061207d565b60405180910390f35b34801561045a57600080fd5b506104756004803603810190610470919061226c565b610b10565b005b34801561048357600080fd5b5061048c610b2e565b6040516104999190611fb7565b60405180910390f35b6104bc60048036038101906104b7919061200f565b610bc0565b005b3480156104ca57600080fd5b506104e560048036038101906104e091906122b9565b610d91565b005b3480156104f357600080fd5b5061050e60048036038101906105099190612429565b610da7565b005b34801561051c57600080fd5b506105376004803603810190610532919061200f565b610dc4565b6040516105449190611fb7565b60405180910390f35b34801561055957600080fd5b50610562610e6f565b60405161056f9190612113565b60405180910390f35b34801561058457600080fd5b5061059f600480360381019061059a91906124ac565b610e75565b6040516105ac9190611e73565b60405180910390f35b3480156105c157600080fd5b506105dc60048036038101906105d791906121da565b610f09565b6040516105e99190612113565b60405180910390f35b3480156105fe57600080fd5b50610619600480360381019061061491906121da565b610f21565b005b600b60009054906101000a900460ff1681565b60007f80ac58cd000000000000000000000000000000000000000000000000000000007bffffffffffffffffffffffffffffffffffffffffffffffffffffffff1916827bffffffffffffffffffffffffffffffffffffffffffffffffffffffff191614806106f957507f5b5e139f000000000000000000000000000000000000000000000000000000007bffffffffffffffffffffffffffffffffffffffffffffffffffffffff1916827bffffffffffffffffffffffffffffffffffffffffffffffffffffffff1916145b80610709575061070882610fa7565b5b9050919050565b60606000805461071f9061251b565b80601f016020809104026020016040519081016040528092919081815260200182805461074b9061251b565b80156107985780601f1061076d57610100808354040283529160200191610798565b820191906000526020600020905b81548152906001019060200180831161077b57829003601f168201915b5050505050905090565b60006107ad82611011565b506107b782611099565b9050919050565b6107d082826107cb6110d6565b6110de565b5050565b60085481565b6107e26110f0565b80600b60006101000a81548160ff02191690831515021790555050565b600073ffffffffffffffffffffffffffffffffffffffff168273ffffffffffffffffffffffffffffffffffffffff16036108715760006040517f64a0ae92000000000000000000000000000000000000000000000000000000008152600401610868919061207d565b60405180910390fd5b600061088583836108806110d6565b611177565b90508373ffffffffffffffffffffffffffffffffffffffff168173ffffffffffffffffffffffffffffffffffffffff16146108fb578382826040517f64283d7b0000000000000000000000000000000000000000000000000000000081526004016108f29392919061254c565b60405180910390fd5b50505050565b6109096110f0565b6000600d60009054906101000a900473ffffffffffffffffffffffffffffffffffffffff1673ffffffffffffffffffffffffffffffffffffffff1647604051610951906125da565b60006040518083038185875af1925050503d806000811461098e576040519150601f19603f3d011682016040523d82523d6000602084013e610993565b606091505b50509050806109d7576040517f08c379a00000000000000000000000000000000000000000000000000000000081526004016109ce9061263b565b60405180910390fd5b50565b6109f583838360405180602001604052806000815250610da7565b505050565b600a5481565b6000610a0b82611011565b9050919050565b60075481565b60008073ffffffffffffffffffffffffffffffffffffffff168273ffffffffffffffffffffffffffffffffffffffff1603610a8b5760006040517f89c62b64000000000000000000000000000000000000000000000000000000008152600401610a82919061207d565b60405180910390fd5b600360008373ffffffffffffffffffffffffffffffffffffffff1673ffffffffffffffffffffffffffffffffffffffff168152602001908152602001600020549050919050565b610ada6110f0565b610ae46000611391565b565b6000600660009054906101000a900473ffffffffffffffffffffffffffffffffffffffff16905090565b610b186110f0565b8181600c9182610b29929190612812565b505050565b606060018054610b3d9061251b565b80601f0160208091040260200160405190810160405280929190818152602001828054610b699061251b565b8015610bb65780601f10610b8b57610100808354040283529160200191610bb6565b820191906000526020600020905b815481529060010190602001808311610b9957829003601f168201915b5050505050905090565b600b60009054906101000a900460ff16610c0f576040517f08c379a0000000000000000000000000000000000000000000000000000000008152600401610c069061292e565b60405180910390fd5b60075481610c1d919061297d565b3414610c5e576040517f08c379a0000000000000000000000000000000000000000000000000000000008152600401610c5590612a0b565b60405180910390fd5b60095481600854610c6f9190612a2b565b1115610cb0576040517f08c379a0000000000000000000000000000000000000000000000000000000008152600401610ca790612aab565b60405180910390fd5b600a5481600e60003373ffffffffffffffffffffffffffffffffffffffff1673ffffffffffffffffffffffffffffffffffffffff16815260200190815260200160002054610cfe9190612a2b565b1115610d3f576040517f08c379a0000000000000000000000000000000000000000000000000000000008152600401610d3690612b17565b60405180910390fd5b60005b81811015610d8d5760006001600854610d5b9190612a2b565b905060086000815480929190610d7090612b37565b9190505550610d7f3382611457565b508080600101915050610d42565b5050565b610da3610d9c6110d6565b8383611475565b5050565b610db28484846107ff565b610dbe848484846115e4565b50505050565b6060600073ffffffffffffffffffffffffffffffffffffffff16610de78361179b565b73ffffffffffffffffffffffffffffffffffffffff1603610e3d576040517f08c379a0000000000000000000000000000000000000000000000000000000008152600401610e3490612bcb565b60405180910390fd5b600c610e48836117d8565b604051602001610e59929190612cf6565b6040516020818303038152906040529050919050565b60095481565b6000600560008473ffffffffffffffffffffffffffffffffffffffff1673ffffffffffffffffffffffffffffffffffffffff16815260200190815260200160002060008373ffffffffffffffffffffffffffffffffffffffff1673ffffffffffffffffffffffffffffffffffffffff16815260200190815260200160002060009054906101000a900460ff16905092915050565b600e6020528060005260406000206000915090505481565b610f296110f0565b600073ffffffffffffffffffffffffffffffffffffffff168173ffffffffffffffffffffffffffffffffffffffff1603610f9b5760006040517f1e4fbdf7000000000000000000000000000000000000000000000000000000008152600401610f92919061207d565b60405180910390fd5b610fa481611391565b50565b60007f01ffc9a7000000000000000000000000000000000000000000000000000000007bffffffffffffffffffffffffffffffffffffffffffffffffffffffff1916827bffffffffffffffffffffffffffffffffffffffffffffffffffffffff1916149050919050565b60008061101d8361179b565b9050600073ffffffffffffffffffffffffffffffffffffffff168173ffffffffffffffffffffffffffffffffffffffff160361109057826040517f7e2732890000000000000000000000000000000000000000000000000000000081526004016110879190612113565b60405180910390fd5b80915050919050565b60006004600083815260200190815260200160002060009054906101000a900473ffffffffffffffffffffffffffffffffffffffff169050919050565b600033905090565b6110eb83838360016118a6565b505050565b6110f86110d6565b73ffffffffffffffffffffffffffffffffffffffff16611116610ae6565b73ffffffffffffffffffffffffffffffffffffffff1614611175576111396110d6565b6040517f118cdaa700000000000000000000000000000000000000000000000000000000815260040161116c919061207d565b60405180910390fd5b565b6000806111838461179b565b9050600073ffffffffffffffffffffffffffffffffffffffff168373ffffffffffffffffffffffffffffffffffffffff16146111c5576111c4818486611a6b565b5b600073ffffffffffffffffffffffffffffffffffffffff168173ffffffffffffffffffffffffffffffffffffffff1614611256576112076000856000806118a6565b6001600360008373ffffffffffffffffffffffffffffffffffffffff1673ffffffffffffffffffffffffffffffffffffffff168152602001908152602001600020600082825403925050819055505b600073ffffffffffffffffffffffffffffffffffffffff168573ffffffffffffffffffffffffffffffffffffffff16146112d9576001600360008773ffffffffffffffffffffffffffffffffffffffff1673ffffffffffffffffffffffffffffffffffffffff168152602001908152602001600020600082825401925050819055505b846002600086815260200190815260200160002060006101000a81548173ffffffffffffffffffffffffffffffffffffffff021916908373ffffffffffffffffffffffffffffffffffffffff160217905550838573ffffffffffffffffffffffffffffffffffffffff168273ffffffffffffffffffffffffffffffffffffffff167fddf252ad1be2c89b69c2b068fc378daa952ba7f163c4a11628f55a4df523b3ef60405160405180910390a4809150509392505050565b6000600660009054906101000a900473ffffffffffffffffffffffffffffffffffffffff16905081600660006101000a81548173ffffffffffffffffffffffffffffffffffffffff021916908373ffffffffffffffffffffffffffffffffffffffff1602179055508173ffffffffffffffffffffffffffffffffffffffff168173ffffffffffffffffffffffffffffffffffffffff167f8be0079c531659141344cd1fd0a4f28419497f9722a3daafe3b4186f6b6457e060405160405180910390a35050565b611471828260405180602001604052806000815250611b2f565b5050565b600073ffffffffffffffffffffffffffffffffffffffff168273ffffffffffffffffffffffffffffffffffffffff16036114e657816040517f5b08ba180000000000000000000000000000000000000000000000000000000081526004016114dd919061207d565b60405180910390fd5b80600560008573ffffffffffffffffffffffffffffffffffffffff1673ffffffffffffffffffffffffffffffffffffffff16815260200190815260200160002060008473ffffffffffffffffffffffffffffffffffffffff1673ffffffffffffffffffffffffffffffffffffffff16815260200190815260200160002060006101000a81548160ff0219169083151502179055508173ffffffffffffffffffffffffffffffffffffffff168373ffffffffffffffffffffffffffffffffffffffff167f17307eab39ab6107e8899845ad3d59bd9653f200f220920489ca2b5937696c31836040516115d79190611e73565b60405180910390a3505050565b60008373ffffffffffffffffffffffffffffffffffffffff163b1115611795578273ffffffffffffffffffffffffffffffffffffffff1663150b7a026116286110d6565b8685856040518563ffffffff1660e01b815260040161164a9493929190612d7a565b6020604051808303816000875af192505050801561168657506040513d601f19601f820116820180604052508101906116839190612ddb565b60015b61170a573d80600081146116b6576040519150601f19603f3d011682016040523d82523d6000602084013e6116bb565b606091505b50600081510361170257836040517f64a0ae920000000000000000000000000000000000000000000000000000000081526004016116f9919061207d565b60405180910390fd5b805181602001fd5b63150b7a0260e01b7bffffffffffffffffffffffffffffffffffffffffffffffffffffffff1916817bffffffffffffffffffffffffffffffffffffffffffffffffffffffff19161461179357836040517f64a0ae9200000000000000000000000000000000000000000000000000000000815260040161178a919061207d565b60405180910390fd5b505b50505050565b60006002600083815260200190815260200160002060009054906101000a900473ffffffffffffffffffffffffffffffffffffffff169050919050565b6060600060016117e784611b4b565b01905060008167ffffffffffffffff811115611806576118056122fe565b5b6040519080825280601f01601f1916602001820160405280156118385781602001600182028036833780820191505090505b509050600082602001820190505b60011561189b578080600190039150507f3031323334353637383961626364656600000000000000000000000000000000600a86061a8153600a858161188f5761188e612e08565b5b04945060008503611846575b819350505050919050565b80806118df5750600073ffffffffffffffffffffffffffffffffffffffff168273ffffffffffffffffffffffffffffffffffffffff1614155b15611a135760006118ef84611011565b9050600073ffffffffffffffffffffffffffffffffffffffff168373ffffffffffffffffffffffffffffffffffffffff161415801561195a57508273ffffffffffffffffffffffffffffffffffffffff168173ffffffffffffffffffffffffffffffffffffffff1614155b801561196d575061196b8184610e75565b155b156119af57826040517fa9fbf51f0000000000000000000000000000000000000000000000000000000081526004016119a6919061207d565b60405180910390fd5b8115611a1157838573ffffffffffffffffffffffffffffffffffffffff168273ffffffffffffffffffffffffffffffffffffffff167f8c5be1e5ebec7d5bd14f71427d1e84f3dd0314c0f7b2291e5b200ac8c7c3b92560405160405180910390a45b505b836004600085815260200190815260200160002060006101000a81548173ffffffffffffffffffffffffffffffffffffffff021916908373ffffffffffffffffffffffffffffffffffffffff16021790555050505050565b611a76838383611c9e565b611b2a57600073ffffffffffffffffffffffffffffffffffffffff168373ffffffffffffffffffffffffffffffffffffffff1603611aeb57806040517f7e273289000000000000000000000000000000000000000000000000000000008152600401611ae29190612113565b60405180910390fd5b81816040517f177e802f000000000000000000000000000000000000000000000000000000008152600401611b21929190612e37565b60405180910390fd5b505050565b611b398383611d5f565b611b4660008484846115e4565b505050565b600080600090507a184f03e93ff9f4daa797ed6e38ed64bf6a1f0100000000000000008310611ba9577a184f03e93ff9f4daa797ed6e38ed64bf6a1f0100000000000000008381611b9f57611b9e612e08565b5b0492506040810190505b6d04ee2d6d415b85acef81000000008310611be6576d04ee2d6d415b85acef81000000008381611bdc57611bdb612e08565b5b0492506020810190505b662386f26fc100008310611c1557662386f26fc100008381611c0b57611c0a612e08565b5b0492506010810190505b6305f5e1008310611c3e576305f5e1008381611c3457611c33612e08565b5b0492506008810190505b6127108310611c63576127108381611c5957611c58612e08565b5b0492506004810190505b60648310611c865760648381611c7c57611c7b612e08565b5b0492506002810190505b600a8310611c95576001810190505b80915050919050565b60008073ffffffffffffffffffffffffffffffffffffffff168373ffffffffffffffffffffffffffffffffffffffff1614158015611d5657508273ffffffffffffffffffffffffffffffffffffffff168473ffffffffffffffffffffffffffffffffffffffff161480611d175750611d168484610e75565b5b80611d5557508273ffffffffffffffffffffffffffffffffffffffff16611d3d83611099565b73ffffffffffffffffffffffffffffffffffffffff16145b5b90509392505050565b600073ffffffffffffffffffffffffffffffffffffffff168273ffffffffffffffffffffffffffffffffffffffff1603611dd15760006040517f64a0ae92000000000000000000000000000000000000000000000000000000008152600401611dc8919061207d565b60405180910390fd5b6000611ddf83836000611177565b9050600073ffffffffffffffffffffffffffffffffffffffff168173ffffffffffffffffffffffffffffffffffffffff1614611e535760006040517f73c6ac6e000000000000000000000000000000000000000000000000000000008152600401611e4a919061207d565b60405180910390fd5b505050565b60008115159050919050565b611e6d81611e58565b82525050565b6000602082019050611e886000830184611e64565b92915050565b6000604051905090565b600080fd5b600080fd5b60007fffffffff0000000000000000000000000000000000000000000000000000000082169050919050565b611ed781611ea2565b8114611ee257600080fd5b50565b600081359050611ef481611ece565b92915050565b600060208284031215611f1057611f0f611e98565b5b6000611f1e84828501611ee5565b91505092915050565b600081519050919050565b600082825260208201905092915050565b60005b83811015611f61578082015181840152602081019050611f46565b60008484015250505050565b6000601f19601f8301169050919050565b6000611f8982611f27565b611f938185611f32565b9350611fa3818560208601611f43565b611fac81611f6d565b840191505092915050565b60006020820190508181036000830152611fd18184611f7e565b905092915050565b6000819050919050565b611fec81611fd9565b8114611ff757600080fd5b50565b60008135905061200981611fe3565b92915050565b60006020828403121561202557612024611e98565b5b600061203384828501611ffa565b91505092915050565b600073ffffffffffffffffffffffffffffffffffffffff82169050919050565b60006120678261203c565b9050919050565b6120778161205c565b82525050565b6000602082019050612092600083018461206e565b92915050565b6120a18161205c565b81146120ac57600080fd5b50565b6000813590506120be81612098565b92915050565b600080604083850312156120db576120da611e98565b5b60006120e9858286016120af565b92505060206120fa85828601611ffa565b9150509250929050565b61210d81611fd9565b82525050565b60006020820190506121286000830184612104565b92915050565b61213781611e58565b811461214257600080fd5b50565b6000813590506121548161212e565b92915050565b6000602082840312156121705761216f611e98565b5b600061217e84828501612145565b91505092915050565b6000806000606084860312156121a05761219f611e98565b5b60006121ae868287016120af565b93505060206121bf868287016120af565b92505060406121d086828701611ffa565b9150509250925092565b6000602082840312156121f0576121ef611e98565b5b60006121fe848285016120af565b91505092915050565b600080fd5b600080fd5b600080fd5b60008083601f84011261222c5761222b612207565b5b8235905067ffffffffffffffff8111156122495761224861220c565b5b60208301915083600182028301111561226557612264612211565b5b9250929050565b6000806020838503121561228357612282611e98565b5b600083013567ffffffffffffffff8111156122a1576122a0611e9d565b5b6122ad85828601612216565b92509250509250929050565b600080604083850312156122d0576122cf611e98565b5b60006122de858286016120af565b92505060206122ef85828601612145565b9150509250929050565b600080fd5b7f4e487b7100000000000000000000000000000000000000000000000000000000600052604160045260246000fd5b61233682611f6d565b810181811067ffffffffffffffff82111715612355576123546122fe565b5b80604052505050565b6000612368611e8e565b9050612374828261232d565b919050565b600067ffffffffffffffff821115612394576123936122fe565b5b61239d82611f6d565b9050602081019050919050565b82818337600083830152505050565b60006123cc6123c784612379565b61235e565b9050828152602081018484840111156123e8576123e76122f9565b5b6123f38482856123aa565b509392505050565b600082601f8301126124105761240f612207565b5b81356124208482602086016123b9565b91505092915050565b6000806000806080858703121561244357612442611e98565b5b6000612451878288016120af565b9450506020612462878288016120af565b935050604061247387828801611ffa565b925050606085013567ffffffffffffffff81111561249457612493611e9d565b5b6124a0878288016123fb565b91505092959194509250565b600080604083850312156124c3576124c2611e98565b5b60006124d1858286016120af565b92505060206124e2858286016120af565b9150509250929050565b7f4e487b7100000000000000000000000000000000000000000000000000000000600052602260045260246000fd5b6000600282049050600182168061253357607f821691505b602082108103612546576125456124ec565b5b50919050565b6000606082019050612561600083018661206e565b61256e6020830185612104565b61257b604083018461206e565b949350505050565b600081905092915050565b7f2000000000000000000000000000000000000000000000000000000000000000600082015250565b60006125c4600183612583565b91506125cf8261258e565b600182019050919050565b60006125e5826125b7565b9150819050919050565b7f7769746864726177206661696c65640000000000000000000000000000000000600082015250565b6000612625600f83611f32565b9150612630826125ef565b602082019050919050565b6000602082019050818103600083015261265481612618565b9050919050565b600082905092915050565b60008190508160005260206000209050919050565b60006020601f8301049050919050565b600082821b905092915050565b6000600883026126c87fffffffffffffffffffffffffffffffffffffffffffffffffffffffffffffffff8261268b565b6126d2868361268b565b95508019841693508086168417925050509392505050565b6000819050919050565b600061270f61270a61270584611fd9565b6126ea565b611fd9565b9050919050565b6000819050919050565b612729836126f4565b61273d61273582612716565b848454612698565b825550505050565b600090565b612752612745565b61275d818484612720565b505050565b5b818110156127815761277660008261274a565b600181019050612763565b5050565b601f8211156127c65761279781612666565b6127a08461267b565b810160208510156127af578190505b6127c36127bb8561267b565b830182612762565b50505b505050565b600082821c905092915050565b60006127e9600019846008026127cb565b1980831691505092915050565b600061280283836127d8565b9150826002028217905092915050565b61281c838361265b565b67ffffffffffffffff811115612835576128346122fe565b5b61283f825461251b565b61284a828285612785565b6000601f8311600181146128795760008415612867578287013590505b61287185826127f6565b8655506128d9565b601f19841661288786612666565b60005b828110156128af5784890135825560018201915060208501945060208101905061288a565b868310156128cc57848901356128c8601f8916826127d8565b8355505b6001600288020188555050505b50505050505050565b7f6d696e74696e67206973206e6f7420656e61626c656400000000000000000000600082015250565b6000612918601683611f32565b9150612923826128e2565b602082019050919050565b600060208201905081810360008301526129478161290b565b9050919050565b7f4e487b7100000000000000000000000000000000000000000000000000000000600052601160045260246000fd5b600061298882611fd9565b915061299383611fd9565b92508282026129a181611fd9565b915082820484148315176129b8576129b761294e565b5b5092915050565b7f77726f6e67206d696e742076616c756500000000000000000000000000000000600082015250565b60006129f5601083611f32565b9150612a00826129bf565b602082019050919050565b60006020820190508181036000830152612a24816129e8565b9050919050565b6000612a3682611fd9565b9150612a4183611fd9565b9250828201905080821115612a5957612a5861294e565b5b92915050565b7f736f6c64206f7574000000000000000000000000000000000000000000000000600082015250565b6000612a95600883611f32565b9150612aa082612a5f565b602082019050919050565b60006020820190508181036000830152612ac481612a88565b9050919050565b7f6578636565646564206d6178207065722077616c6c6574000000000000000000600082015250565b6000612b01601783611f32565b9150612b0c82612acb565b602082019050919050565b60006020820190508181036000830152612b3081612af4565b9050919050565b6000612b4282611fd9565b91507fffffffffffffffffffffffffffffffffffffffffffffffffffffffffffffffff8203612b7457612b7361294e565b5b600182019050919050565b7f546f6b656e20646f6573206e6f74206578697374000000000000000000000000600082015250565b6000612bb5601483611f32565b9150612bc082612b7f565b602082019050919050565b60006020820190508181036000830152612be481612ba8565b9050919050565b600081905092915050565b60008154612c038161251b565b612c0d8186612beb565b94506001821660008114612c285760018114612c3d57612c70565b60ff1983168652811515820286019350612c70565b612c4685612666565b60005b83811015612c6857815481890152600182019150602081019050612c49565b838801955050505b50505092915050565b6000612c8482611f27565b612c8e8185612beb565b9350612c9e818560208601611f43565b80840191505092915050565b7f2e6a736f6e000000000000000000000000000000000000000000000000000000600082015250565b6000612ce0600583612beb565b9150612ceb82612caa565b600582019050919050565b6000612d028285612bf6565b9150612d0e8284612c79565b9150612d1982612cd3565b91508190509392505050565b600081519050919050565b600082825260208201905092915050565b6000612d4c82612d25565b612d568185612d30565b9350612d66818560208601611f43565b612d6f81611f6d565b840191505092915050565b6000608082019050612d8f600083018761206e565b612d9c602083018661206e565b612da96040830185612104565b8181036060830152612dbb8184612d41565b905095945050505050565b600081519050612dd581611ece565b92915050565b600060208284031215612df157612df0611e98565b5b6000612dff84828501612dc6565b91505092915050565b7f4e487b7100000000000000000000000000000000000000000000000000000000600052601260045260246000fd5b6000604082019050612e4c600083018561206e565b612e596020830184612104565b939250505056fea264697066735822122058d91de7b9d7c1e38a26f13b3a84b8b4cde2fed1a90264933c2772158a907baf64736f6c63430008170033",
  "linkReferences": {},
  "deployedLinkReferences": {}
}